:10000000A9C7000000000000000000000000000080
:10001000000000000000000000000000E2C000003E
:1000200000000000000000000000000000000000D0
:10003000000000000000000032C2000000000000CC
:1000400000000000000000000000000000000000B0
:1000500000000000000000000000000000000000A0
:100060000000000000000000000000000000000090
:100070000000000000000000000000000000000080
:10008000000000000000000019C500000000000092
:100090000000000000000000000000000000000060
:1000A00000000000000000000000000074C5000017
:1000B000BCC50000000000000000000000000000BF
:1000C0000000000000000000000000000000000030
:1000D0000000000000000000000000000000000020
:1000E0000000000000000000000000000000000010
:1000F0000000000000000000000000000000000000
:10010000A5C4000000000000000000000000000086
:1001100000000000000000000000000000000000DF
:1001200000000000000000000000000000000000CF
:1001300000000000000000000000000000000000BF
:1001400000000000000000000000000000000000AF
:10015000000000000000000000000000000000009F
:10016000000000000000000000000000000000008F
:10017000000000000000000000000000000000007F
:10018000000000000000000000000000000000006F
:10019000000000000000000000000000000000005F
:1001A0003FC600009DC400000000000000000000E9
:1001B000000000000000000000000000000000003F
:1001C000000000000000000000000000000000002F
:1001D00000000000000000000000000081C60000D8
:1001E00053C6FF93FFB70F931F932F93CF93DF93C4
:1001F000EF93FF931AE00091680604FD02C01A9580
:10020000D1F71091240101E100932101E6E7FBE21F
:10021000C9E3D4E208E0011B1127C00FD11F0991E7
:100220000A3A21F015910117D9F016C1173041F0A3
:100230001395C13409F4289709910A3AB9F30CC10E
:10024000F89492D4789403E000934124FF91EF91C5
:10025000DF91CF912F911F910F91FFBFFF9140C46C
:10026000C13409F428970991EE37E1F6002700938D
:10027000200178940F921F922F92AF923F934F9349
:100280005F936F937F938F939F93AF93BF930E94DE
:10029000320B0E94200CC9E3D4E2C0931801D09322
:1002A0001901442740931A012993399309934883EC
:1002B00004E00093140100270093150104E9009362
:1002C00010010091110104FFFCCF00E10093110126
:1002D000A9E3B4E2A0932C01B0932D0144274093ED
:1002E0002E0108E0009324010027009325010091CE
:1002F000680604FFFCCF0091C2090091C30904E81D
:10030000009320010091210104FFFCCF00E1009344
:100310002101CD91DD91ED9111960D901D902C90C4
:10032000AE016E2FA9E3B4E2A0931801B0931901B6
:1003300000270D930D930D930C9300931A0104E085
:1003400000931401002700931501009316010091FA
:10035000680604FFFCCF04EB009310010027A5E31F
:10036000B4E20D930D930D930C930E94880B8001C2
:10037000222D041B150B260B0F5F1F4F2F4F22231F
:1003800031F421E00217120710F4F1E003C0002756
:1003900011E0FF27A5E3B2E220913524B20F31E04E
:1003A000232720933524A0932C01B0932D014427BB
:1003B00040932E01009324011093250157D004E8A7
:1003C000009320010091210104FFFCCF00E1009384
:1003D0002101FF23C9F02091680624FFFCCF0027EC
:1003E00000931001A9E3B4E2A0931801B09319019E
:1003F000002700931A0108E00093140100270093DE
:10040000150104EB009310010E949D0B0E94590BF3
:1004100030F0552309F0ABCF0E949D0BA6CF0E9470
:100420009D0B0E94B90BADE3B4E22D933D930D9368
:100430001D931CD00027009300010E943F0BBF9129
:10044000AF919F918F917F916F915F914F913F916C
:10045000AF902F901F900F90FF91EF91DF91CF9170
:100460002F911F910F91FFBFFF91189500E810E1A8
:100470007894F8942091680624FFFACF00933C24E6
:100480001093110178940091110104FFFCCF002713
:1004900000933C242091680624FFFCCF0895FF932D
:1004A000FFB7FF93EF93DF93CF939F938F937F9348
:1004B0006F935F934F933F932F931F930F931F92CD
:1004C0000F92E9E5F1E20081002309F4B4C00A9536
:1004D00009F46BC00A95F9F10A9551F10A95E1F01A
:1004E0002FE7F8940E94B41178940F700F3021F028
:1004F00011811A95E9F19EC048D202E000938C0662
:1005000009E0009389062FE700E018E0F8940E94C4
:100510008711789400E834C00091680603FF8BC00F
:1005200000E80093250605E000830AEF018383C0FD
:1005300044273327F89404E00E940411412B005E05
:10054000043CD1F733953330B1F77894417081F49E
:1005500004E0008370C002E83327F8940E9404117D
:1005600078941F70113021F433953330B1F70DC0FA
:10057000F89400915721006800935721789400E483
:10058000009306060027008356C0002713E02227A9
:1005900037E0F8940E94BA1001E0112722270E9448
:1005A000BA10789403E0008346C011811A9509F0CF
:1005B00041C002E0008300E20093A6060093A50676
:1005C0000093250608E0009345060091280606FDE5
:1005D0000EC0F8940091572100640093572100E465
:1005E0000093060604E000938606789424C001E098
:1005F00000932C0602E00093290600E810E026EAAA
:1006000033E0F8940E94BA1001E812E022270E9419
:10061000BA100CE0CBE7D1E23327199122270E94D0
:10062000BA10005E0C38C9F70CE033953330A9F7E7
:10063000789401C0118332960081818192810023D8
:1006400009F476C00130C9F4019789F5009134228C
:10065000002379F1F894009157210770013049F493
:1006600004E000938506789488EE93E002E000832E
:100670001EC07894002700831AC00230D9F4019775
:10068000B1F40091572103FD0AC004E0F8940093EF
:100690008606019AF4D278940027008308C088EE79
:1006A00093E003E00093422433D303E0008381838B
:1006B00092833EC0033081F40197C9F78FD304E0E1
:1006C0000093650602E0009366060093650604E069
:1006D000008388E893E1EBCF043099F40091680639
:1006E00003FF0BC005E00083F894009157210061DF
:1006F00000935721789473D106C00197C1F6F894FE
:10070000C8CF0530A9F40091240607FF11C001E00D
:1007100000936C0602E000936906009159210023C2
:1007200039F400270083F8940E9498127894DAD064
:100730008381948101E0843F900761F4F894009BE9
:1007400003C001E000930706029B03C000E2009390
:1007500007067894019719F083839483B0C0F894C6
:10076000009B03C001E000930706029B03C000E268
:1007700000930706789488EE93E08383948300E5E2
:100780001FEF2FEF0E94DF12112742FF02C016E079
:1007900007C041FF02C014E003C040FF01C012E0E7
:1007A000F89400915721202F2670212781F0097F8E
:1007B000012B00935721019909C0163011F4019AB9
:1007C00004C0112311F0009A01C059D27894487FD7
:1007D00024E1429F012D11275203000D111D258197
:1007E0003681058316834091890643FF68C002174E
:1007F000130729F02CEBF8940E9487117894039941
:100800005EC02DE7F8940E94B4117894F801012B92
:1008100009F455C07727F695E79508F04CC0272FC7
:10082000220F235FF8940E94B4117894A8012395B5
:10083000F8940E94B41178940417150718F4C801AD
:100840008A01AC01112339F4073928F44E3198F5A7
:100850000EE1041B09C0552311F04E3160F1A801CF
:1008600006E91127041B150B472FCFECD1E2440FEB
:10087000440F242F440F4C5F5527C40FD51F4881C8
:100880005981400F511F81E0453F58073CF48EEFDE
:100890005C3058072CF44CE05EEF02C044EF51E0AE
:1008A000488359838A012E57F8940E9487117894BF
:1008B000672F0E94821073957C3009F0ACCF0F90A7
:1008C0001F900F911F912F913F914F915F916F91C9
:1008D0007F918F919F91CF91DF91EF91FF91FFBF1A
:1008E000FF9118952F931F930F93DF93EF932CE7AE
:1008F00000271127F8940E948711789400912F22E5
:1009000011272227F8940E9487117894C7EBD1E22F
:10091000099119912395F8940E94871178942C30AD
:10092000B9F724E2C7E8D1E2099119912395F89427
:100930000E94871178942C33B9F7239500913022C7
:1009400010913122F8940E948711789400916021CF
:10095000109161212CEBF8940E94871178940091FA
:100960003222109133222DEBF8940E948711789453
:100970002CE70FEF1FE0F8940E9487117894EF9115
:10098000DF910F911F912F9108950F931F932F9334
:10099000CF93DF9320E8CFECD1E209911991F8943D
:1009A0000E94871178942395203BB9F7C3E6D1E2E2
:1009B00009911991F8940E948711789423952C3B02
:1009C000B9F70091412411272EEBF8940E9487116A
:1009D0007894DF91CF912F911F910F910895FF93FC
:1009E000EF93DF93CF937F936F935F934F933F93F7
:1009F0002F931F930F931F920F927727CFECD1E283
:100A000049915991672F0E94531049915991672F2D
:100A10000E94761049915991672F0E948210499146
:100A20005991672F0E94681073957C3049F70F9099
:100A30001F900F911F912F913F914F915F916F9157
:100A40007F91CF91DF91EF91FF910895FF93FFB7D1
:100A50000F930091680603FBF8940091572104F965
:100A60000093572178942EF4F89405E017D07894E9
:100A700011C001E0009389060027009358210091DE
:100A800057210F770093572100EC0093050601E0F2
:100A9000009341240F91FFBFFF91189500935B21B4
:100AA00000E80093260600915921002319F0053033
:100AB00009F0089504E0009359210895FF93FFB7CA
:100AC0000F930091572100660093572100E4009393
:100AD000060604E0009386060F91FFBFFF9118956C
:100AE000FF93FFB70F931F932F933F930091A80697
:100AF00006FB5EF405FD09C005EF1FE024E030E4CD
:100B00000E94431200E20093A5060E9467123295EC
:100B10003E7030F9009162210E70309362210327FC
:100B200081F000E231FF04C000930606029809C07C
:100B300032FF01C0029A33FF04C000E200930506B1
:100B400002983EF40AE000935A2101E000935921F3
:100B500004C00AD002E0009341243F912F911F91DD
:100B60000F91FFBFFF91189501E00093890608E0FF
:100B70000093460600EA0093260600EC0093050663
:100B800000270093582100935921009157210F7796
:100B9000009357210895FF93FFB7F8940F931F9385
:100BA0002F9311270091880601FB10F903FB13F91D
:100BB00002FB00915721202F067F012B0093572124
:100BC000212720FF13C010FD06C004E00093860615
:100BD000019A61D023C010ED27E001E000935B2172
:100BE00010935C2120935D21019818C023FF17C04A
:100BF00013FD15C000915B21023069F4009142247D
:100C0000002349F00A950093422404E000938606ED
:100C100018E823E1E2CF3FD016F4019A30D02F91AB
:100C20001F910F91FFBFFF911895FF93FFB70F938F
:100C30001F932F932FE70E94B41111FF05C020913D
:100C4000062021602093062002950F7012951071E6
:100C5000102B009158210E7F012B009358211C71FD
:100C600041F00091572100680093572100E4009360
:100C700006062F911F910F91FFBFFF9118950199C3
:100C800005C0009801E000930506089501E0009377
:100C9000060600980895002700935C2100935D21CB
:100CA00000935B2100935921009341240093062077
:100CB0000093622101E00093890602E00093A906F7
:100CC00000E000932906009369060FEB00932206CB
:100CD00000270093C0080FEF0093420601E4009341
:100CE000620604E00093660600E20093A60600E2B6
:100CF0000093A206009157210F7E0093572100EA2E
:100D00000093050600270093C00900930001089591
:100D10000CEB009324060FEB0093210607E00093F1
:100D200044060FEB0093410601E00093650601E4E1
:100D30000093610600E10093A50600E30093A1067D
:100D400001ED0093C00800E4009300010091000150
:100D500006FDFCCF04E40093C00903E80093000102
:100D60000AE60093130103EC00931C0109E00093D1
:100D70001D01002700931E0100E5009312010AE601
:100D80000093230109E300932C0104E200932D0159
:100D9000002700932E0103EC0093280109E0009343
:100DA0002901002700932A010093260108E00093FF
:100DB000240100270093250105E00093220104EAA5
:100DC0000093200101E00093210108E010E12227B7
:100DD0003327F8940E944312789408950F931F9339
:100DE0002F933F934F93EF93FF93E6E1F9E24AE0AD
:100DF0000591159125913591F8940E9443127894AC
:100E00004A95B1F70AE00093A90600E2009326068E
:100E1000FF91EF914F913F912F911F910F91089565
:100E2000FF93FFB7FF93EF93DF932F931F930F93DE
:100E3000E4E0F0E2DD270091A80601FD1BC0D39598
:100E4000129102910117A9F02091A10B25FF0CC06E
:100E500011270395E7E4F0E2E00FF11F10811093F2
:100E6000A00BE2E0F0E200832091A30B226020932C
:100E7000A30B3296D0830F911F912F91DF91EF91A9
:100E8000FF91FFBFFF911895FF93FFB7FF93EF937B
:100E90003F932F931F930F93E2E0F0E201911191A2
:100EA0002081222311F0011731F43091A30B3C7FF4
:100EB0003093A30B0CC003951127E7E4F0E2E00F99
:100EC000F11F10811093A00BE2E0F0E200830F917C
:100ED0001F912F913F91EF91FF91FFBFFF911895C7
:100EE000FF93FFB7FF93EF933F932F931F930F93BE
:100EF000E0E0F0E20191108113951F73212F2C5E29
:100F00002F73201741F421E02093A506209105209E
:100F10002068209305203091A10B2091A00B34FD77
:100F200010C0011771F01083E7E0F0E20027E10F35
:100F3000F01F20832D3029F40091052003950093A4
:100F400005200F911F912F913F91EF91FF91FFBFCE
:100F5000FF9118950BEC0093520009E000935000AC
:100F60001091510013FFFCCF02EC0093550009E1F2
:100F7000009350001091510014FFFCCF18ED04E0D5
:100F8000109334000093400008E1009350009FEF5D
:100F90009DBF9FE39EBF0BEF0093010603EF0093FD
:100FA000050608E10093120600E80093110600937D
:100FB00013060093140602E00093360600E800933F
:100FC000530600E30093540608E200937106009371
:100FD000720604E00093660602E00093650606E0F0
:100FE0000093610600E00093730604E0009381061D
:100FF00001E00093900600E00093910600E8009362
:10100000920600E0009393060AE000938A0601E04E
:1010100000938B0609E00093A10600E00093B1065F
:1010200000E00093B60600E10093B70600E40093E9
:101030002A0608E000936A0602E00093AA0600E48C
:101040000093AB0601E00093A50600ED0093A70B0B
:1010500003E80093A60B03E00093A50B08E10093BF
:10106000A40B00E20093A30B06E0009300080DE739
:101070000093260800E00093270800E00093010891
:1010800000E00093040801E00093060808E00093E4
:10109000CC019927E0E0F0E2C3E4D4E29193EC17AD
:1010A000FD07E1F703E0009342240091A80601FF49
:1010B0009395909304200091880601FB002700F986
:1010C000009357212EF0019A01E00093060609C013
:1010D00001E000935B2100ED00935C2107E00093A9
:1010E0005D2108EE00935E2103E000935F2101E0A3
:1010F0000093890602E00093A90603E00093A20092
:101100000E94F51208E010E50E94CC1200E210E007
:1011100023E20E94DF1200E310E02EE10E94DF12C2
:10112000E3E6F1E2C0E0D0E112E209910193E53398
:10113000F107D9F703987894E2E6F9E20E941314D4
:1011400001E00093A60600910620002309F006D0D6
:10115000009105200023B9F3C8D0F5CF0027F894FB
:10116000009306200091240607FD02C0789408959C
:101170000E94E511789420E8CFECD1E2F694E79450
:10118000D794C794B794A7949794879410F0229615
:10119000A2C0F8944091890643FFE8CF0E94B411A1
:1011A0007894203B08F078C0322F3370F1F485E753
:1011B0000133180738F481E00C32180768F40CE2A8
:1011C00011E002C000E315E7F8944091890643FF5F
:1011D000CDCF0E948711789409931993A801622FAB
:1011E0006F73669566955FD776C03130F1F481E014
:1011F000053F18073CF48EEF0C3018076CF40CE038
:101200001EEF02C004EF11E0F8944091890643FFFD
:10121000ADCF0E948711789409931993A801622F8A
:101220006F736695669562D756C03230F1F481E0EF
:10123000053F18073CF48EEF0C3018076CF40CE0F7
:101240001EEF02C004EF11E0F8944091890643FFBD
:101250008DCF0E948711789409931993A801622F6A
:101260006F73669566954ED736C08EE401321807C7
:1012700010F000E21EE4F8944091890643FF76CF17
:101280000E948711789409931993A801622F6F73B4
:10129000669566951DD71FC08FE0013A180750F07C
:1012A00000EA1FE0F8944091890643FF5FCF0E9457
:1012B0008711789409931993622F6F70762FEFEC52
:1012C000F1E2770F770F770F8827E70FF81F41912B
:1012D0005081E9D600C02395203B19F4C3E6D1E242
:1012E0004DCF2C3B09F04ACF08950F77009305208E
:1012F0000E941E14033441F40E941E14013409F4A8
:1013000071C4003571F5B8C00F3441F40E941E1449
:101310000E3409F460C0063421F5ABC0003559F431
:101320000E941E14013409F4EDC0033409F487C38C
:101330000634B9F438C10235A9F40E941E140134F0
:1013400009F4A5C2033409F48CC4033509F48AC333
:10135000063409F4CEC4043509F4DAC20A3509F4B6
:10136000AEC232C0033539F50E941E14033471F445
:101370000E941E140C3409F481C5033509F4B0C56C
:10138000043509F454C50235F9F415C5043409F4DB
:10139000D4C50C3409F4FBC50F3409F427C6033552
:1013A00009F4DFC4043509F4F4C4063509F494C023
:1013B0000A3551F44CC6073539F40E941E14023523
:1013C00019F4F5C20E941E140D30E1F7E8E8F9E2C5
:1013D0000E941314089541E00E941E140D30A1F7DD
:1013E00000913422041709F4FCC540933422009183
:1013F000CF0107FDFACF06E30093CA0101E018ED23
:10140000F894109334000093CB0178940091CF01AD
:1014100007FDFCCFC1EDD0E1488305E30093CA018D
:10142000C093C001D093C10101E018EDF89410936E
:1014300034000093CB0178940091CF0107FDFCCFDD
:101440004423B1F404E0009386060091572103FD84
:10145000FCCFF89401E000935B2100ED00935C2148
:1014600007E000935D21019801E40093050678945C
:10147000B8C54427B1CFA8CF0E941E140D30D9F7AC
:101480004DD608F408952227F8940E94B411789458
:1014900000932F22C7EBD1E22395F8940E94B41158
:1014A0007894099319932C30B9F724E2C7E8D1E274
:1014B0002395F8940E94B4117894099319932C33CE
:1014C000B9F72395F8940E94B411789400933022D0
:1014D0001093312286C578CF0E941E140032D9F7AE
:1014E0000E945613C0F30D30B1F718D608F40895D2
:1014F00040933222509333222DEB8A01F89407D780
:1015000078946FC53AD038F30E941B14E02F402F17
:101510000E941B14F02F502F0E941B14602F0E945A
:101520001B14302E0E941B14402E0E941B14502EA0
:1015300062308CF63E164F06560668F2F8946093B9
:101540003B00A9DB0027009389060093060804E00E
:101550000093860603E418ED109334000093A20074
:1015600006E20093CA0101E018EDF89410933400EC
:101570000093CB017894089500000E941E140D3052
:1015800079F4E6E7FBE215910E941B14011741F480
:10159000EE37C9F7E8E9F9E20E9413148894089538
:1015A0000894089511CFE9DFE8F3002700930001C4
:1015B00059D00027A5E3B4E20D930D930D930C933E
:1015C0003FD111270E947C1389010E947C130E9445
:1015D0000F140E941B14C02F0E941B14D02F0E94B6
:1015E0001B14E02F0E941B14002E0E941B14102EAF
:1015F0000E941B14202EAE016E2F8AD0102D212D9B
:10160000322D01E00E945614141B250B360B1F5F70
:101610002F4F3F4F232B09F01127809135249091B4
:101620003624A5E3B2E2A80FB91F0E941B140C9345
:10163000019691701A95A9F78093352490933624DA
:101640007CD037D020F05523C9F677D0D6CF75D0CF
:1016500090D00E947C1389010E947C130E940F1479
:101660000ED0BFC402E00093660600E10093850639
:1016700000EB0093810600E50093C00A0895F894FA
:101680000027009369060093C00A00EB00938206CE
:10169000019801E00093050602E00093650608E862
:1016A00000935C2103E100935D2104E0F7D9789475
:1016B000089535D002E0A8D0809137249091382445
:1016C000A5E3B2E2A80FB91F0C91019691700093A7
:1016D000C30A3091C20A37FFFCCF0416150626064E
:1016E00049F4809337249093382400E100938506D1
:1016F000089408954F5F5F4F6F4F442309F780931D
:1017000037249093382400E1009385068894089547
:1017100006D008ED79D000E100938506089500E138
:101720000093860606E00093C30A3091C20A37FF91
:10173000FCCF00E100938506089580E496E00197D0
:10174000F1F700E10093860605E00093C30A3091AB
:10175000C20A37FFFCCF8093C30A3091C20A37FF19
:10176000FCCF8091C30A00E10093850680FDE5CFA0
:10177000089500E10093860603E00093C30AAA24BB
:101780003091C20A37FFFCCFE093C30A3091C20AFE
:1017900037FFFCCFD093C30A3091C20A37FFFCCF8A
:1017A000C093C30A0FEF1FEF2FEF3FEF77EB8DE1F1
:1017B00091ECA4E06091C20A67FFFCCFA092C30A3B
:1017C0006091C20A67FFFCCF6091C30A0C161D0628
:1017D0002E0631F0A092C30A05D02196EA1DF0CF63
:1017E00001D051C048E0220F331F001F111F18F411
:1017F000669538F002C0669520F427273827092718
:101800001A274A9581F7089510E1109386060093F0
:10181000C30A3091C20A37FFFCCF6093C30A3091EC
:10182000C20A37FFFCCF5093C30A3091C20A37FF78
:10183000FCCF4093C30A3091C20A37FFFCCF089512
:1018400000E1009386060FE90093C30A4427309114
:10185000C20A37FFFCCF4093C30A3091C20A37FF58
:10186000FCCF2091C30A4093C30A3091C20A37FFCC
:10187000FCCF3091C30A4093C30A4091C20A47FF8C
:10188000FCCF0091C30A40E1409385060895D6D766
:101890000D30E9F543D408F4089524E6F89464D5AE
:1018A000789455D700E20E9456142395F8945CD59D
:1018B00078944DD7B4D723952C3780F392C3BED7F5
:1018C0000D3029F52BD408F4089533272DE0230F8C
:1018D000F8944AD578943BD700E2E8D72395F8945A
:1018E00043D5789434D700E2E1D72CE4230FF89461
:1018F0003BD578942CD700E2D9D72395F89434D5EA
:10190000789425D78CD73E5F383100F36AC35CCD1D
:1019100095D70D30E1F702D408F408952EE3F8943A
:1019200023D57894412F112707FD10950CD700E29D
:10193000BDD7042F112707FD109505D700E2B6D7B4
:101940002FE3F89411D57894112707FD1095FBD655
:1019500066D7CBE7D1E2772720E4270FF89404D5A8
:101960007894CAD600361CF010FF125004C0003123
:1019700010F410FD1E5F1595159508F400680F937F
:1019800000E294D70F91DFD600E290D78827099123
:10199000000F0595112707FD1095D5D600E286D7D3
:1019A0003ED773957C30C4F23AD71BC30DCD46D7D2
:1019B0000D30E1F70091CF0107FDFCCF06E3009366
:1019C000CA0101E018EDF894109334000093CB01A4
:1019D0007894E3E6F1E2CFEFDFE042E20091CF015D
:1019E00007FDFCCF039A3327219601911881102718
:1019F00011F0088331E0E533F40731F02C2F2F711B
:101A00002F3191F704D0F0CF02D00398EAC23323EC
:101A1000A1F005E30093CA01C093C001D093C101B6
:101A200001E018EDF894109334000093CB01789402
:101A30000091CF0107FDFCCF33270895C5CCFED61A
:101A40000D30E1F7EEE3F9E249E0F89405911591E4
:101A50002591359118D54A95C9F77894E8E9F9E2C6
:101A6000E2D60895EBD60D3049F7EAE6FBE2DBD685
:101A700000913222109133223FD6EEE7FBE2D3D61B
:101A8000E2E9FBE2259135910591159135D6890161
:101A900033D6E6EAF9E2C7D6F894209157210091AF
:101AA000602110916121409188067894E8E9F9E27B
:101AB00020FD02C0EEE9F9E2B6D6322FE0ECF9E201
:101AC000B2D639D6EEECF9E2367051F0E2EEF9E238
:101AD000363031F0ECEDF9E2347011F4E6EDF9E274
:101AE000A2D6ECEEF9E29FD642FD04C0E2E0FAE2B3
:101AF0009AD60895ECEFF9E296D6E8E9F9E223FDEB
:101B000008C0EEE9F9E28FD626FF0895E2EFFAE287
:101B1000EFCF89D6E8E2FAE286D630916221E6E399
:101B2000FAE231FD06C0EEE3FAE232FD02C0E8E47B
:101B3000FAE279D6E2E5FAE276D6EAE5FAE230FFB1
:101B400002C0EEE5FAE26FD6E4E0FBE224FD03C05A
:101B5000E4EBFAE2CDCF67D6E2E1FBE264D6E8E956
:101B6000F9E227FF16C0E0E2FBE25DD64091582182
:101B7000112742FF09C0E8E2FBE255D600E3010F5E
:101B800095D6EEE2FBE24FD6123058F51395469506
:101B9000F0CF49D6E6E9FBE246D640914124440F16
:101BA000E8EAFBE25527E40FF51F45915491FA014D
:101BB0003AD6E4E8F9E237D640915821E4E4FBE272
:101BC00032D6E2E0FAE240FD02C02DD60895ECEFF5
:101BD000F9E229D6EEE4FBE241FF02C0ECE5FBE2CC
:101BE00022D608952BD60D30D9F5F89400915721BF
:101BF00010B1137089F4009157210F77009357218A
:101C000000915821017E00935821789400E40093BC
:101C10000506E8E0FAE222C00770013021F078946E
:101C2000EEE9F9E21BC0009157210F710093572193
:101C300000270093582101E000935B2104E000930A
:101C4000860600ED00935C2107E000935D2101987A
:101C500001E4009305067894E8E9F9E2E4D50895F3
:101C6000B3CBECD50D30E1F744275527E6ECFAE28B
:101C7000DAD5042F11276BD5D6D5C3E6D1E2642F70
:101C8000660FC60FD51F0991188161D5CCD5742F69
:101C9000737080E2789F0CE0000D342F36953695F6
:101CA000F894B2D27894012F112707FD1FEF4BD57E
:101CB000BAD5C7EBD1E2642F660FC60FD51F0991C5
:101CC000199141D5B0D5C7E8D1E2642F660F660FF0
:101CD000C60FD51F099119913AD500E2E7D50991B0
:101CE000188135D59CD543954C3009F0BFCF089568
:101CF0006BCBA4D50D30E1F7CFECD1E24427E8E679
:101D0000FAE291D5042F112722D58DD5F8940991A7
:101D1000199178940CD587D5F894099119917894F4
:101D200006D581D5F89409911991789400D57BD581
:101D3000F89409911991789402D571D543954C3056
:101D4000F1F6E2E9FAE26FD500912F221127FFD4D4
:101D50006AD50091302210913122F9D460D50895CE
:101D600033CB6CD50032E1F765D410F2552302F283
:101D7000A0E140305A07A4F7D1D108F40895409368
:101D80003022509331222DE38A01F894C0D2789406
:101D900028C154D5003221F74DD410F3552301F753
:101DA000BDD108F4089540932F2220E08A01F894D1
:101DB000AED2789416C13ED4C8F15523B9F54C3053
:101DC000ACF5642F003291F535D480F10C3271F509
:101DD000CA0130D458F10D3049F5ACE040305A0713
:101DE0002CF580309A0714F5A5E045355A07F4F034
:101DF00085359A07DCF092D108F40895C7E8D1E25E
:101E0000660F762F770FBB24C70FDB1D899399933D
:101E10004993588325E2260F8C01F89478D2789460
:101E200023958A01F89473D27894DBC0CDCA02D48A
:101E300020F1552311F54C3004F5642F0032E9F4FC
:101E4000F9D3D8F00D30C9F45523BAF080E1403011
:101E500058079CF463D108F40895C7EBD1E2762FBC
:101E6000770FBB24C70FDB1D4993588321E0260F52
:101E70008A01F8944CD27894B4C0A6CADBD3E8F3B4
:101E80005523D9F74C30CCF7642F0032B1F7D2D3B9
:101E9000A0F30D3091F7552382F38FE0413A5807B4
:101EA00064F73CD108F408958A0120EB260FF894DA
:101EB0002ED27894C3E6D1E2762F770FBB24C70FDA
:101EC000DB1D49935883CFECD1E2A62EAA0CAA0CB5
:101ED000AA0CBB24CA0DDB1D49915881E4D081C0F6
:101EE000A9D350F1552341F54C3034F5342F00324D
:101EF00019F5A0D308F10D30F9F480E0403458070B
:101F0000DCF48FEF403C5807BCF008D108F408958A
:101F1000CBE7D1E2BB24C30FDB1D4883532F5370A3
:101F200060E2569F0CE0000D36953695142F22275F
:101F3000F89420D1789455C047CA7CD3E8F3552350
:101F4000D9F74C30CCF7642F0032B1F773D3A0F33C
:101F50000D3091F7552382F38EE44132580764F730
:101F6000DDD008F408958A01762F770F770F23E8E4
:101F7000270FF894CCD17894CFECD1E2770F7A5F29
:101F8000BB24C70FDB1D49935883A2D02AC052D36C
:101F900098F2552389F64C307CF6642F003261F6B6
:101FA00049D350F20D3041F685E74133580724F606
:101FB00081E04C32580704F2B1D008F408958A0148
:101FC000A62EAA0CAA0C20E82A0DF894A0D1789489
:101FD000CFECD1E2AA0CBB24CA0DDB1D4993588378
:101FE00062D0E8E9F9E21FD40895EEC923D3E8F3FB
:101FF0005523D9F74C30CCF7642F0032B1F71AD300
:10200000A0F30D3091F781E0453F580774F78EEF4C
:102010004C30580754F382D008F40895039A8A018B
:10202000762F770F770F22E8270FF89470D17894E6
:10203000CFECD1E2770F7C5FBB24C70FDB1DF89498
:102040004993588378945ED00398CBCFBDC9F2D220
:1020500060F2552351F64C3044F6642F003229F6D5
:10206000E9D218F20D3009F681E0453F580774F7C0
:102070008EEF4C30580754F351D008F408958A017C
:10208000762F770F770F21E8270FF89440D17894B7
:10209000CFECD1E2770F7E5FBB24C70FDB1D4993E6
:1020A000588324D09ECF2F932CE032E04FD0E3E62C
:1020B000F1E24427660FE60FF41F660F636041915B
:1020C0005081040F151F00951095EFD02F910895A2
:1020D0002F9320E23EE4241B350BA90122E732E0D6
:1020E00035D0660F660FE1D02F9108952F9328E821
:1020F00031E41ED020E81227660F660F6260D5D04B
:102100002F9108952F9328E831E412D020E8122768
:10211000660F660F6160C9D02F9108958894009171
:10212000572104FD0895E4EBFAE27DD30894089565
:102130001127249F07FC1394012D349F000D111DBE
:102140005203000D111D5303100D08951127249FF4
:1021500007FC1394012D349F000D111D259F000DC8
:10216000111D359F112019F4100D08F008950FEF7F
:102170001FEF08950F931F932F933F934F935F93F8
:102180006F93532F3370333010F06CE105C064E06F
:102190003A9512F0660FFCCF62606093260661E00C
:1021A00042E06093250660932606547011F0409338
:1021B0002506609325066093260658E107FF4093A5
:1021C000260607FD40932506111F221F001F60935E
:1021D0002506609326065A9589F760932506609335
:1021E00026065CE15093250660932506609326063B
:1021F00060932506609326066F915F914F913F9102
:102200002F911F910F9108950F933F934F935F93D9
:102210006F93333008F043C064E03A9512F0660FD4
:10222000FCCF6093260661E042E040932506609370
:102230002506609326064093260660932506609344
:10224000260658E007FF4093260607FD4093250623
:10225000001F60932506609326065A9599F74093D0
:102260002206609325066093260650E160932506BA
:10227000110F221F0091280601FD116060932606B0
:102280005A95A1F75CE1509325064093210660938F
:1022900025066093260660932506609326066F91B7
:1022A0005F914F913F910F9108956F937F938F931B
:1022B000F89475ED7093C008762F81E0707321F06B
:1022C000880F705109F0880F762F6295607C770F28
:1022D0007670672B6061809346066093C3086091B7
:1022E000C20867FFFCCF1093C3086091C20867FF64
:1022F000FCCF0093C3086091C20867FFFCCF67E082
:102300006093450678948F917F916F9108952F93F4
:102310005F936F9361ED6093C0085527269557959D
:102320002695579561E0609366062093C3086091F7
:10233000C20867FFFCCF5093C3086091C20867FFD3
:10234000FCCF1093C3086091C20867FFFCCF0093D5
:10235000C3086091C20867FFFCCF61E06093650627
:102360006F915F912F9108952F935F936F9361ED1C
:102370006093C00861E0269557952695579520688B
:10238000609366062093C3086091C20867FFFCCF84
:102390005093C3086091C20867FFFCCF1093C30835
:1023A0006091C20867FFFCCF1091C3080093C30877
:1023B0006091C20867FFFCCF0091C30861E06093A1
:1023C00065066F915F912F9108952F935F936F939F
:1023D00061ED6093C0082CEB552761E060936606C1
:1023E0002093C3086091C20867FFFCCF5093C308D5
:1023F0006091C20867FFFCCF5093C3086091C20888
:1024000067FFFCCF9090C3085093C3086091C20847
:1024100067FFFCCF8090C3085093C3086091C20847
:1024200067FFFCCFB090C3085093C3086091C20807
:1024300067FFFCCFA090C3085093C3086091C20807
:1024400067FFFCCFD090C3085093C3086091C208C7
:1024500067FFFCCFC090C3085093C3086091C208C7
:1024600067FFFCCFF090C3085093C3086091C20887
:1024700067FFFCCFE090C30861E0609365066F9151
:102480005F912F9108956F9361EF6093C00860E1B1
:102490006093A6060093C3086091C20867FFFCCF53
:1024A0001093C3086091C20867FFFCCF2093C30854
:1024B0006091C20867FFFCCF3093C3086091C208E7
:1024C00067FFFCCF60E16093A5066F9108956F935D
:1024D0007F930EE8112722273327D5DF60E1609331
:1024E000A60677277093C3086091C20867FFFCCFE8
:1024F0000091C3087093C3086091C20867FFFCCFC6
:102500001091C3087093C3086091C20867FFFCCFA5
:102510002091C3087093C3086091C20867FFFCCF85
:102520003091C30860E16093A5067F916F91089593
:102530002F935F936F93EF93FF93E2E9FBE261EDDB
:102540006093C0082DE350E461E060936606209339
:10255000C3086091C20867FFFCCF5093C308609125
:10256000C20867FFFCCF259155915093C308609135
:10257000C20867FFFCCF2093C3086091C20867FFC1
:10258000FCCFE63981F761E060936506FF91EF913A
:102590006F915F912F9108950F931F932F933F9306
:1025A00020E120930606312F2FD0032F2DD020E1DC
:1025B000209305063F912F911F910F9108950F933E
:1025C0001F932F9340E140930606412F522F1CD0BA
:1025D000052F1AD0502F042F17D0402F20E1209321
:1025E00005062F911F910F91089500E100930606B3
:1025F0000FEF0AD00FEF08D00FEF06D00FEF04D087
:1026000000E100930506089528E018E007FD109307
:10261000050607FF1093060612E010930606000F4A
:102620000000109305061091080612FB00F92A9588
:1026300061F708956F931F932F933F931F920F920B
:1026400022271AE0332744275527F8D0222329F4DC
:102650000D3219F433952395F8CF239500338CF080
:102660000A337CF4602F6053419F060E6627161EC6
:10267000652F512D402D169F112081F4500D28F704
:102680000DC0213059F0332339F0223039F033278F
:102690004195531F519512F4889401C008940F90EE
:1026A0001F903F912F911F916F9108956F932F93DA
:1026B000222744275527C2D0602F0033A8F00A33C1
:1026C00028F0013488F0073478F467506053440FE1
:1026D000551F440F551F440F551F440F551F462BC0
:1026E0002395243041F7AAD0222311F0889401C009
:1026F00008942F916F9108950F931F932F93202F7C
:102700001295012F0DD01295012F0AD02295022F7C
:1027100007D02295022F04D02F911F910F91089579
:102720000F70005D0A3308F0095FC0D008954F9321
:1027300042E008940FC04F9341E008940BC04F93C0
:1027400043E0089407C04F934427089403C04F9375
:1027500044278894EF92FF920F931F932F933F93F8
:102760009F93EF93FF93FF2440F4F39411232AF4F3
:10277000F194019508F413951195E6E5F1E23327FC
:1027800030832DE0EE24105AE0FE10F0089402C0D1
:1027900010568894001F111FEE1C2A95A1F7212FB7
:1027A000E79427951F7122952F70205D2293339512
:1027B000431711F42EE22293112319F7002309F78E
:1027C000431764F020E3229349F03395341711F056
:1027D0002293FBCF2EE2229320E3229310E54423A1
:1027E00009F01A9500E2FF2029F00AF40DE20293A5
:1027F00000E21A95E11711F00293FCCF3196019196
:10280000002311F053D0FBCFFF91EF919F913F91A7
:102810002F911F910F91FF90EF904F910895E4E851
:10282000F9E201D008950F930591002311F03ED0F5
:10283000FBCF0F9108953F9331E002C03F933327C0
:102840001F932F934F93EF93FF93E0E0F0E2F89400
:102850001081018178940117D1F313951F73409172
:10286000A40640FF07C0212F2C5E2F73021341E006
:102870004093A6062227E7E0F0E2E10FF21F208155
:10288000109300202D3029F4109105201A951093F3
:10289000052020361CF011F030FF2F75022FFF911C
:1028A000EF914F912F911F913F910895FF93EF93D7
:1028B0004F933F932F931F93E2E0F0E2F89411912E
:1028C0002191121789F02395121719F478943297F1
:1028D000F5CFE7E4F0E21127E20FF11F0083E3E018
:1028E000F0E22083789410C023953081332389F35C
:1028F0004091A10B45FFEDCF0093A00B4091A30B9E
:1029000042604093A30B78941F912F913F914F9178
:10291000EF91FF91089508180000200307EB2103B1
:1029200080EB020306EB030380EB34038468350F6E
:1029300004408601FEC0F7BB42BD8601FEC42003F1
:102940000769210380690203066903038069340370
:102950008468350F04408601EEC0F73778BC1F004D
:1029600000000D0A57555420504D787820636F6E43
:1029700074726F6C20696E74657266616365207233
:10298000656164790D0A000053796E746178206581
:1029900072726F720D0A00004F4B0D0A0000464123
:1029A000494C0D0A00000D0A45787465726E616C21
:1029B00020706F77657220736F757263653A2000BF
:1029C00054656D7065726174757265200000204EEB
:1029D0004F524D414C00204C4F5700002048494772
:1029E000480020435249544943414C000D0A426F6C
:1029F00061726420706F7765722000004F4E2C204A
:102A000000004F46460D0A004E6F20616C61726DEA
:102A10002C206572726F7220666C61677320636C24
:102A200065617265640D0A00436C6F636B20736FA0
:102A30007572636520005052494D4152590053450B
:102A4000434F4E4441525900494E5445524E414C19
:102A500000002C20504C4C2000004E4F54204C4F76
:102A6000434B45440D0A000043483A002054726528
:102A700073686F6C643A002053686966743A00208A
:102A80005A65726F206F6666733A002044656C6108
:102A90007900547269676765722077696E646F7731
:102AA0003A000D0A434644207361742E206C65760B
:102AB000656C3A0046504741206E6F742072656124
:102AC00064790D0A000043483A00204C63616C3A77
:102AD00000205444433A002054696D6520736869AE
:102AE00066743A002052616E676520636F72723AB5
:102AF0000000544443206F766572686561746564B4
:102B00000D0A0000465047412072656164790D0A44
:102B10000000436C6F636B2073797374656D2000E4
:102B20004572726F720D0A005444432000002072F7
:102B3000656665726E636520756E737461626C653F
:102B40000D0A0000474254206C696E6B2000206E15
:102B50006F206572726F72730D0A00002052582048
:102B60006572726F72730D0A0000426F61726420A9
:102B7000532F4E3A20007856341298BADCFE204685
:102B80006C6173682054696D657374616D703A206F
:102B900000002BD92A854C617374207265736574AB
:102BA0002066726F6D200000B02BC42BBA2BD02B87
:102BB000506F776572206F6E0000504C4C206C6F28
:102BC000636B0000465047412072656C6F61640082
:0C2BD00053504920636F6D6D616E64000E
:00000001FF
